:0400000006EF00F017
:1000080025EFFEF07F9C7F8E19ECFEF053ECFEF09E
:1000180092ECFEF02FECFFF005ECFEF032ECFFF076
:020000040001F9
:10FC0A00AB8EAC98AC94AC8A6596670EAF6E948C4A
:10FC1A001200296EDE5015ECFEF0292EFBD71200D9
:10FC2A009EA8FED7AD6E1200870ED56E040ECA6E60
:10FC3A00A00EF26E000ED66ED76E9A6E916E1200FC
:10FC4A00F2A41100F294202A20C091FF11001D6E27
:10FC5A00FA0E33ECFEF01D2EFBD712001B6E1B3A78
:10FC6A000F0E1B141C6EF00E1B163DECFEF012005C
:10FC7A00000E1B061C5AFDE21200000000000000E4
:10FC8A00000000000000000000000000000000006A
:10FC9A000000000000000000000012009784978A0C
:10FCAA009698969A999E1D0EC26E300EC16E760E69
:10FCBA00C06E000E276E286E12001D0EC26E8D9841
:10FCCA008D8AC2828FECFEF0C350236EC450246E1C
:10FCDA001200290EC26E8D888D9AC2828FECFEF0B8
:10FCEA00C350256EC450266E0A0E265CD8B02880F2
:10FCFA00F50E265CD8A02882030E285CD8B48AEFB9
:10FD0A00FEF02790909E8CEFFEF0908E2780000EDA
:10FD1A00286E1200C2B2FED71200000E936E956EC4
:10FD2A00000E8A6E8C6E8A968A8A15ECFFF03F0E58
:10FD3A00106E0DECFFF018ECFFF03F0E106E0DEC9C
:10FD4A00FFF0140E2CECFEF015ECFFF0C00E106E56
:10FD5A000DECFFF018ECFFF0C00E106E0DECFFF08A
:10FD6A00000E126E000E116E080E146E100E136E37
:10FD7A00FF0E196ED4ECFEF0000E196ED4ECFEF0F4
:10FD8A0012001550B809BF0B106E0DECFFF01200EF
:10FD9A00165040097F0B106E0DECFFF0120015ECA7
:10FDAA00FFF01150E826E826E826176E12C015F073
:10FDBA0017BC18ECFFF017503F0B166EF1ECFEF073
:10FDCA001750080F176E1750E842E842E842135CD2
:10FDDA00D8A4DBEFFEF01200CDECFEF0C6ECFEF08C
:10FDEA00080E186E19C010F005ECFFF0182EF7EF88
:10FDFA00FEF0152A1550145CD8A4F1EFFEF012009B
:10FE0A0022ECFFF010C08CFF8A841DECFFF0120078
:10FE1A0022ECFFF010C08CFF8A941DECFFF0120058
:10FE2A008A908A8212008A808A922CECFEF0120052
:10FE3A008A8842ECFEF08A9812008A86FF0E956E36
:10FE4A008A941DECFFF083BE26EFFFF08A96000E1F
:10FE5A00956E1200020E016E12005BECFFF032EF9B
:10FE6A00FFF012000192FF0E196FA5ECFFF0000ED1
:10FE7A00196FA5ECFFF0CCCF0FF00F8A200E2CECF7
:10FE8A00FEF00F2EFBD7018054ECFFF0FF0E196E27
:10FE9A009AECFFF06EECFEF027B0FCD71200D6CF3A
:10FEAA0002F0D7CF03F020C004F012006EECFEF08F
:10FEBA000150E8402714E8B037ECFFF0015027144E
:10FECA00E8B069ECFFF0120075ECFFF00190000E4B
:10FEDA00196E9AECFFF07CECFFF037ECFFF01200A1
:10FEEA00D6CF05F0D7CF06F020C007F012000E6A71
:10FEFA000250055C086ED8A00E2A0350065C0EB0AC
:10FF0A00E806096ED8A00E2AD8B00E6A0450075C1B
:10FF1A000EB0E8060A6E0A5015ECFEF0095015EC10
:10FF2A00FEF0085015ECFEF00000030E116E0D0EE7
:10FF3A00136E030E126E050E146ED4ECFEF0120050
:10FF4A00010E116E020E136E010E126E070E146E62
:10FF5A00D4ECFEF0010E116E070E136E010E126E36
:10FF6A00020E146ED4ECFEF0010E116E050E136E25
:10FF7A00060E126E070E146ED4ECFEF0050E116E0C
:10FF8A00060E136E040E126E060E146ED4ECFEF0FC
:10FF9A00040E116E070E136E040E126E050E146E09
:10FFAA00D4ECFEF0090E116E0F0E136E010E126ED6
:10FFBA00020E146ED4ECFEF00E0E116E0F0E136EBE
:10FFCA00010E126E070E146ED4ECFEF0090E116EBD
:10FFDA000F0E136E060E126E070E146ED4ECFEF0A0
:10FFEA00090E116E0A0E136E010E126E070E146EB2
:06FFFA00D4ECFEF0120041
:020000040030CA
:0700000015137F7CF98B91C1
:06000800FFC0FFE0FF4015
:00000001FF
